{
  "contractName": "EscrowManager",
  "abi": [
    {
      "inputs": [],
      "payable": false,
      "stateMutability": "nonpayable",
      "type": "constructor"
    },
    {
      "anonymous": false,
      "inputs": [
        {
          "indexed": false,
          "name": "newAddress",
          "type": "address"
        },
        {
          "indexed": false,
          "name": "productId",
          "type": "uint256"
        }
      ],
      "name": "NotifyEscrowCreated",
      "type": "event"
    },
    {
      "anonymous": false,
      "inputs": [
        {
          "indexed": false,
          "name": "escrowAddress",
          "type": "address"
        },
        {
          "indexed": false,
          "name": "status",
          "type": "bool"
        }
      ],
      "name": "NotifyEscrowAccept",
      "type": "event"
    },
    {
      "anonymous": false,
      "inputs": [
        {
          "indexed": false,
          "name": "escrowAddress",
          "type": "address"
        },
        {
          "indexed": false,
          "name": "status",
          "type": "bool"
        }
      ],
      "name": "NotifyEscrowReject",
      "type": "event"
    },
    {
      "constant": false,
      "inputs": [
        {
          "name": "_seller",
          "type": "address"
        },
        {
          "name": "_productId",
          "type": "uint256"
        }
      ],
      "name": "createEscrow",
      "outputs": [],
      "payable": true,
      "stateMutability": "payable",
      "type": "function"
    },
    {
      "constant": false,
      "inputs": [
        {
          "name": "addressOfEscrow",
          "type": "address"
        }
      ],
      "name": "accept",
      "outputs": [],
      "payable": false,
      "stateMutability": "nonpayable",
      "type": "function"
    },
    {
      "constant": false,
      "inputs": [
        {
          "name": "addressOfEscrow",
          "type": "address"
        }
      ],
      "name": "reject",
      "outputs": [],
      "payable": false,
      "stateMutability": "nonpayable",
      "type": "function"
    }
  ],
  "bytecode": "0x6060604052341561000f57600080fd5b610c3b8061001e6000396000f300606060405260043610610057576000357c0100000000000000000000000000000000000000000000000000000000900463ffffffff1680634614874e1461005c5780639f00592014610093578063ab0da5a9146100cc575b600080fd5b610091600480803573ffffffffffffffffffffffffffffffffffffffff16906020019091908035906020019091905050610105565b005b341561009e57600080fd5b6100ca600480803573ffffffffffffffffffffffffffffffffffffffff16906020019091905050610204565b005b34156100d757600080fd5b610103600480803573ffffffffffffffffffffffffffffffffffffffff16906020019091905050610339565b005b60003433846101126105ab565b808373ffffffffffffffffffffffffffffffffffffffff1673ffffffffffffffffffffffffffffffffffffffff1681526020018273ffffffffffffffffffffffffffffffffffffffff1673ffffffffffffffffffffffffffffffffffffffff168152602001925050506040518091039082f080151561019057600080fd5b905090507f6e337cc6469ed1ad68cf89d877dc39615a430affd74a8ffe7047c397e3e046a68183604051808373ffffffffffffffffffffffffffffffffffffffff1673ffffffffffffffffffffffffffffffffffffffff1681526020018281526020019250505060405180910390a1505050565b60008190507f48de74edcf01bf89ff3076f91b930682cea6ace7c54e51d813dca1221babed68828273ffffffffffffffffffffffffffffffffffffffff16639f005920336000604051602001526040518263ffffffff167c0100000000000000000000000000000000000000000000000000000000028152600401808273ffffffffffffffffffffffffffffffffffffffff1673ffffffffffffffffffffffffffffffffffffffff168152602001915050602060405180830381600087803b15156102ce57600080fd5b6102c65a03f115156102df57600080fd5b50505060405180519050604051808373ffffffffffffffffffffffffffffffffffffffff1673ffffffffffffffffffffffffffffffffffffffff168152602001821515151581526020019250505060405180910390a15050565b6000808291508173ffffffffffffffffffffffffffffffffffffffff1663ab0da5a9336000604051602001526040518263ffffffff167c0100000000000000000000000000000000000000000000000000000000028152600401808273ffffffffffffffffffffffffffffffffffffffff1673ffffffffffffffffffffffffffffffffffffffff168152602001915050602060405180830381600087803b15156103e257600080fd5b6102c65a03f115156103f357600080fd5b5050506040518051905090508173ffffffffffffffffffffffffffffffffffffffff1663ab0da5a9336000604051602001526040518263ffffffff167c0100000000000000000000000000000000000000000000000000000000028152600401808273ffffffffffffffffffffffffffffffffffffffff1673ffffffffffffffffffffffffffffffffffffffff168152602001915050602060405180830381600087803b15156104a257600080fd5b6102c65a03f115156104b357600080fd5b5050506040518051905015610536577f35380f5c3408ba5b2a8f7e8fcb39f251e610851c56936e28a08dddec6d91f9208382604051808373ffffffffffffffffffffffffffffffffffffffff1673ffffffffffffffffffffffffffffffffffffffff168152602001821515151581526020019250505060405180910390a16105a6565b7f35380f5c3408ba5b2a8f7e8fcb39f251e610851c56936e28a08dddec6d91f9208382604051808373ffffffffffffffffffffffffffffffffffffffff1673ffffffffffffffffffffffffffffffffffffffff168152602001821515151581526020019250505060405180910390a15b505050565b604051610654806105bc833901905600606060405233600360046101000a81548173ffffffffffffffffffffffffffffffffffffffff021916908373ffffffffffffffffffffffffffffffffffffffff16021790555060405160408061065483398101604052808051906020019091908051906020019091905050816000806101000a81548173ffffffffffffffffffffffffffffffffffffffff021916908373ffffffffffffffffffffffffffffffffffffffff16021790555080600160006101000a81548173ffffffffffffffffffffffffffffffffffffffff021916908373ffffffffffffffffffffffffffffffffffffffff160217905550426002819055505050610551806101036000396000f300606060405260043610610057576000357c0100000000000000000000000000000000000000000000000000000000900463ffffffff1680639f0059201461005c578063ab0da5a9146100ad578063c71ddb9f146100fe575b600080fd5b341561006757600080fd5b610093600480803573ffffffffffffffffffffffffffffffffffffffff16906020019091905050610113565b604051808215151515815260200191505060405180910390f35b34156100b857600080fd5b6100e4600480803573ffffffffffffffffffffffffffffffffffffffff1690602001909190505061024f565b604051808215151515815260200191505060405180910390f35b341561010957600080fd5b610111610380565b005b60008060009054906101000a900473ffffffffffffffffffffffffffffffffffffffff1673ffffffffffffffffffffffffffffffffffffffff168273ffffffffffffffffffffffffffffffffffffffff16141561018a576001600360006101000a81548160ff0219169083151502179055506101fd565b600160009054906101000a900473ffffffffffffffffffffffffffffffffffffffff1673ffffffffffffffffffffffffffffffffffffffff168273ffffffffffffffffffffffffffffffffffffffff1614156101fc576001600360016101000a81548160ff0219169083151502179055505b5b600360009054906101000a900460ff1680156102255750600360019054906101000a900460ff165b15610245576102326103bb565b5061023b61043c565b506001905061024a565b600090505b919050565b60008060009054906101000a900473ffffffffffffffffffffffffffffffffffffffff1673ffffffffffffffffffffffffffffffffffffffff168273ffffffffffffffffffffffffffffffffffffffff1614156102c6576001600360026101000a81548160ff021916908315150217905550610338565b600160009054906101000a900473ffffffffffffffffffffffffffffffffffffffff1673ffffffffffffffffffffffffffffffffffffffff168273ffffffffffffffffffffffffffffffffffffffff1614156103375760016003806101000a81548160ff0219169083151502179055505b5b600360029054906101000a900460ff16801561035f57506003809054906101000a900460ff165b156103765761036c6104b1565b506001905061037b565b600090505b919050565b600360049054906101000a900473ffffffffffffffffffffffffffffffffffffffff1673ffffffffffffffffffffffffffffffffffffffff16ff5b6000600360049054906101000a900473ffffffffffffffffffffffffffffffffffffffff1673ffffffffffffffffffffffffffffffffffffffff166108fc60643073ffffffffffffffffffffffffffffffffffffffff163181151561041c57fe5b049081150290604051600060405180830381858888f19350505050905090565b6000600160009054906101000a900473ffffffffffffffffffffffffffffffffffffffff1673ffffffffffffffffffffffffffffffffffffffff166108fc3073ffffffffffffffffffffffffffffffffffffffff16319081150290604051600060405180830381858888f19350505050905090565b60008060009054906101000a900473ffffffffffffffffffffffffffffffffffffffff1673ffffffffffffffffffffffffffffffffffffffff166108fc3073ffffffffffffffffffffffffffffffffffffffff16319081150290604051600060405180830381858888f193505050509050905600a165627a7a723058209635bad48319777ec90dae20ca672e14a6a2ddca57c83a41cb08c740eaaba4940029a165627a7a72305820b11fc8c9038bf85f7d5eccbfbefd66917337852b076697fb8849ac50f3484aa30029",
  "source": "pragma solidity ^0.4.18;\n\ncontract Escrow {\n    address buyer;\n    address seller;\n    uint createdAt;\n    bool buyerApprove;\n    bool sellerApprove;\n    bool buyerReject;\n    bool sellerReject;\n\n    address escrow = msg.sender;\n    \n    function Escrow(address _buyer, address _seller) payable public{\n        buyer = _buyer;\n        seller = _seller;\n        createdAt = now;\n    }\n\n    function accept(address _sender) public returns(bool) {\n        if (_sender == buyer) {\n            buyerApprove = true;\n        } else {\n            if (_sender == seller) {\n                sellerApprove = true;\n            }\n        }\n\n        if (buyerApprove && sellerApprove) {\n            payFeeForEscrow();\n            payOut();\n            return true; \n        } else {\n            return false;\n        }\n    } \n\n    function reject(address _sender) public returns(bool) {\n        if (_sender == buyer) {\n            buyerReject = true; \n        } else {\n            if (_sender == seller) {\n                sellerReject = true;\n            }\n        }\n\n        if (buyerReject && sellerReject) {\n            refund();\n            return true;\n        }  else {\n            return false;\n        }\n    }\n\n    function payFeeForEscrow() private returns (bool) {\n        return escrow.send(this.balance / 100);\n    }\n\n    function payOut() private returns(bool) {\n        return seller.send(this.balance);\n    }\n\n    function refund() private returns(bool) {\n        return buyer.send(this.balance);\n    }\n\n    function releaseContract() public {\n        selfdestruct(escrow);\n    }\n}\n\ncontract EscrowManager {\n    event NotifyEscrowCreated(address newAddress, uint productId);\n    event NotifyEscrowAccept(address escrowAddress, bool status);\n    event NotifyEscrowReject(address escrowAddress, bool status);\n    \n    function EscrowManager() public {}\n\n    function createEscrow(address _seller, uint _productId) payable public {\n        address newAddress = address((new Escrow).value(msg.value)(msg.sender, _seller));\n        NotifyEscrowCreated(newAddress, _productId);\n    }\n\n    function accept(address addressOfEscrow) public {\n        Escrow escrow = Escrow(addressOfEscrow);\n        NotifyEscrowAccept(addressOfEscrow, escrow.accept(msg.sender));\n    }\n\n    function reject(address addressOfEscrow) public {\n        Escrow escrow = Escrow(addressOfEscrow);\n        bool result = escrow.reject(msg.sender);\n        if (escrow.reject(msg.sender)) {\n            NotifyEscrowReject(addressOfEscrow, result);\n            // escrow.releaseContract();\n        } else {\n            NotifyEscrowReject(addressOfEscrow, result);\n        }\n    }\n}",
  "sourcePath": "/Users/caothang/Desktop/CoderSchool/Week2/Assigments/contracts/Escrow.sol",
  "compiler": {
    "name": "solc",
    "version": "0.4.19+commit.c4cbbb05.Emscripten.clang"
  },
  "schemaVersion": "2.0.0",
  "updatedAt": "2018-03-25T17:36:18.167Z"
}