{
  "contractName": "Escrow",
  "abi": [
    {
      "inputs": [
        {
          "name": "_buyer",
          "type": "address"
        },
        {
          "name": "_seller",
          "type": "address"
        }
      ],
      "payable": true,
      "stateMutability": "payable",
      "type": "constructor"
    },
    {
      "constant": false,
      "inputs": [
        {
          "name": "_sender",
          "type": "address"
        }
      ],
      "name": "accept",
      "outputs": [
        {
          "name": "",
          "type": "bool"
        }
      ],
      "payable": false,
      "stateMutability": "nonpayable",
      "type": "function"
    },
    {
      "constant": false,
      "inputs": [
        {
          "name": "_sender",
          "type": "address"
        }
      ],
      "name": "reject",
      "outputs": [
        {
          "name": "",
          "type": "bool"
        }
      ],
      "payable": false,
      "stateMutability": "nonpayable",
      "type": "function"
    },
    {
      "constant": false,
      "inputs": [],
      "name": "releaseContract",
      "outputs": [],
      "payable": false,
      "stateMutability": "nonpayable",
      "type": "function"
    }
  ],
  "bytecode": "0x606060405233600360046101000a81548173ffffffffffffffffffffffffffffffffffffffff021916908373ffffffffffffffffffffffffffffffffffffffff16021790555060405160408061065483398101604052808051906020019091908051906020019091905050816000806101000a81548173ffffffffffffffffffffffffffffffffffffffff021916908373ffffffffffffffffffffffffffffffffffffffff16021790555080600160006101000a81548173ffffffffffffffffffffffffffffffffffffffff021916908373ffffffffffffffffffffffffffffffffffffffff160217905550426002819055505050610551806101036000396000f300606060405260043610610057576000357c0100000000000000000000000000000000000000000000000000000000900463ffffffff1680639f0059201461005c578063ab0da5a9146100ad578063c71ddb9f146100fe575b600080fd5b341561006757600080fd5b610093600480803573ffffffffffffffffffffffffffffffffffffffff16906020019091905050610113565b604051808215151515815260200191505060405180910390f35b34156100b857600080fd5b6100e4600480803573ffffffffffffffffffffffffffffffffffffffff1690602001909190505061024f565b604051808215151515815260200191505060405180910390f35b341561010957600080fd5b610111610380565b005b60008060009054906101000a900473ffffffffffffffffffffffffffffffffffffffff1673ffffffffffffffffffffffffffffffffffffffff168273ffffffffffffffffffffffffffffffffffffffff16141561018a576001600360006101000a81548160ff0219169083151502179055506101fd565b600160009054906101000a900473ffffffffffffffffffffffffffffffffffffffff1673ffffffffffffffffffffffffffffffffffffffff168273ffffffffffffffffffffffffffffffffffffffff1614156101fc576001600360016101000a81548160ff0219169083151502179055505b5b600360009054906101000a900460ff1680156102255750600360019054906101000a900460ff165b15610245576102326103bb565b5061023b61043c565b506001905061024a565b600090505b919050565b60008060009054906101000a900473ffffffffffffffffffffffffffffffffffffffff1673ffffffffffffffffffffffffffffffffffffffff168273ffffffffffffffffffffffffffffffffffffffff1614156102c6576001600360026101000a81548160ff021916908315150217905550610338565b600160009054906101000a900473ffffffffffffffffffffffffffffffffffffffff1673ffffffffffffffffffffffffffffffffffffffff168273ffffffffffffffffffffffffffffffffffffffff1614156103375760016003806101000a81548160ff0219169083151502179055505b5b600360029054906101000a900460ff16801561035f57506003809054906101000a900460ff165b156103765761036c6104b1565b506001905061037b565b600090505b919050565b600360049054906101000a900473ffffffffffffffffffffffffffffffffffffffff1673ffffffffffffffffffffffffffffffffffffffff16ff5b6000600360049054906101000a900473ffffffffffffffffffffffffffffffffffffffff1673ffffffffffffffffffffffffffffffffffffffff166108fc60643073ffffffffffffffffffffffffffffffffffffffff163181151561041c57fe5b049081150290604051600060405180830381858888f19350505050905090565b6000600160009054906101000a900473ffffffffffffffffffffffffffffffffffffffff1673ffffffffffffffffffffffffffffffffffffffff166108fc3073ffffffffffffffffffffffffffffffffffffffff16319081150290604051600060405180830381858888f19350505050905090565b60008060009054906101000a900473ffffffffffffffffffffffffffffffffffffffff1673ffffffffffffffffffffffffffffffffffffffff166108fc3073ffffffffffffffffffffffffffffffffffffffff16319081150290604051600060405180830381858888f193505050509050905600a165627a7a723058209635bad48319777ec90dae20ca672e14a6a2ddca57c83a41cb08c740eaaba4940029",
  "source": "pragma solidity ^0.4.18;\n\ncontract Escrow {\n    address buyer;\n    address seller;\n    uint createdAt;\n    bool buyerApprove;\n    bool sellerApprove;\n    bool buyerReject;\n    bool sellerReject;\n\n    address escrow = msg.sender;\n    \n    function Escrow(address _buyer, address _seller) payable public{\n        buyer = _buyer;\n        seller = _seller;\n        createdAt = now;\n    }\n\n    function accept(address _sender) public returns(bool) {\n        if (_sender == buyer) {\n            buyerApprove = true;\n        } else {\n            if (_sender == seller) {\n                sellerApprove = true;\n            }\n        }\n\n        if (buyerApprove && sellerApprove) {\n            payFeeForEscrow();\n            payOut();\n            return true; \n        } else {\n            return false;\n        }\n    } \n\n    function reject(address _sender) public returns(bool) {\n        if (_sender == buyer) {\n            buyerReject = true; \n        } else {\n            if (_sender == seller) {\n                sellerReject = true;\n            }\n        }\n\n        if (buyerReject && sellerReject) {\n            refund();\n            return true;\n        }  else {\n            return false;\n        }\n    }\n\n    function payFeeForEscrow() private returns (bool) {\n        return escrow.send(this.balance / 100);\n    }\n\n    function payOut() private returns(bool) {\n        return seller.send(this.balance);\n    }\n\n    function refund() private returns(bool) {\n        return buyer.send(this.balance);\n    }\n\n    function releaseContract() public {\n        selfdestruct(escrow);\n    }\n}\n\ncontract EscrowManager {\n    event NotifyEscrowCreated(address newAddress, uint productId);\n    event NotifyEscrowAccept(address escrowAddress, bool status);\n    event NotifyEscrowReject(address escrowAddress, bool status);\n    \n    function EscrowManager() public {}\n\n    function createEscrow(address _seller, uint _productId) payable public {\n        address newAddress = address((new Escrow).value(msg.value)(msg.sender, _seller));\n        NotifyEscrowCreated(newAddress, _productId);\n    }\n\n    function accept(address addressOfEscrow) public {\n        Escrow escrow = Escrow(addressOfEscrow);\n        NotifyEscrowAccept(addressOfEscrow, escrow.accept(msg.sender));\n    }\n\n    function reject(address addressOfEscrow) public {\n        Escrow escrow = Escrow(addressOfEscrow);\n        bool result = escrow.reject(msg.sender);\n        if (escrow.reject(msg.sender)) {\n            NotifyEscrowReject(addressOfEscrow, result);\n            // escrow.releaseContract();\n        } else {\n            NotifyEscrowReject(addressOfEscrow, result);\n        }\n    }\n}",
  "sourcePath": "/Users/caothang/Desktop/CoderSchool/Week2/Assigments/contracts/Escrow.sol",
  "compiler": {
    "name": "solc",
    "version": "0.4.19+commit.c4cbbb05.Emscripten.clang"
  },
  "schemaVersion": "2.0.0",
  "updatedAt": "2018-03-25T14:35:55.538Z"
}