{
  "contractName": "Store",
  "abi": [
    {
      "constant": true,
      "inputs": [
        {
          "name": "",
          "type": "address"
        },
        {
          "name": "",
          "type": "uint256"
        }
      ],
      "name": "stores",
      "outputs": [
        {
          "name": "id",
          "type": "uint256"
        },
        {
          "name": "name",
          "type": "string"
        },
        {
          "name": "category",
          "type": "string"
        },
        {
          "name": "imageLink",
          "type": "string"
        },
        {
          "name": "descLink",
          "type": "string"
        },
        {
          "name": "price",
          "type": "uint256"
        },
        {
          "name": "status",
          "type": "uint8"
        },
        {
          "name": "quantity",
          "type": "uint256"
        }
      ],
      "payable": false,
      "stateMutability": "view",
      "type": "function"
    },
    {
      "constant": true,
      "inputs": [
        {
          "name": "",
          "type": "address"
        }
      ],
      "name": "mappingEscrowWithProductId",
      "outputs": [
        {
          "name": "",
          "type": "uint256"
        }
      ],
      "payable": false,
      "stateMutability": "view",
      "type": "function"
    },
    {
      "constant": true,
      "inputs": [
        {
          "name": "",
          "type": "uint256"
        }
      ],
      "name": "productIdInStore",
      "outputs": [
        {
          "name": "",
          "type": "address"
        }
      ],
      "payable": false,
      "stateMutability": "view",
      "type": "function"
    },
    {
      "constant": true,
      "inputs": [],
      "name": "productIndex",
      "outputs": [
        {
          "name": "",
          "type": "uint256"
        }
      ],
      "payable": false,
      "stateMutability": "view",
      "type": "function"
    },
    {
      "inputs": [],
      "payable": false,
      "stateMutability": "nonpayable",
      "type": "constructor"
    },
    {
      "anonymous": false,
      "inputs": [
        {
          "indexed": false,
          "name": "_id",
          "type": "uint256"
        },
        {
          "indexed": false,
          "name": "_name",
          "type": "string"
        },
        {
          "indexed": false,
          "name": "_category",
          "type": "string"
        },
        {
          "indexed": false,
          "name": "_imageLink",
          "type": "string"
        },
        {
          "indexed": false,
          "name": "_descLink",
          "type": "string"
        },
        {
          "indexed": false,
          "name": "_price",
          "type": "uint256"
        },
        {
          "indexed": false,
          "name": "_status",
          "type": "uint8"
        },
        {
          "indexed": false,
          "name": "_quantity",
          "type": "uint256"
        }
      ],
      "name": "NotifyProduct",
      "type": "event"
    },
    {
      "anonymous": false,
      "inputs": [
        {
          "indexed": false,
          "name": "_id",
          "type": "uint256"
        },
        {
          "indexed": false,
          "name": "_name",
          "type": "string"
        },
        {
          "indexed": false,
          "name": "_category",
          "type": "string"
        },
        {
          "indexed": false,
          "name": "_imageLink",
          "type": "string"
        },
        {
          "indexed": false,
          "name": "_descLink",
          "type": "string"
        },
        {
          "indexed": false,
          "name": "_price",
          "type": "uint256"
        },
        {
          "indexed": false,
          "name": "_status",
          "type": "uint8"
        },
        {
          "indexed": false,
          "name": "_quantity",
          "type": "uint256"
        }
      ],
      "name": "NotifyNewProduct",
      "type": "event"
    },
    {
      "anonymous": false,
      "inputs": [
        {
          "indexed": false,
          "name": "productId",
          "type": "uint256"
        },
        {
          "indexed": false,
          "name": "quantity",
          "type": "uint256"
        }
      ],
      "name": "NotifyQuantityOfProduct",
      "type": "event"
    },
    {
      "anonymous": false,
      "inputs": [
        {
          "indexed": false,
          "name": "buyer",
          "type": "address"
        },
        {
          "indexed": false,
          "name": "seller",
          "type": "address"
        },
        {
          "indexed": false,
          "name": "price",
          "type": "uint256"
        },
        {
          "indexed": false,
          "name": "productId",
          "type": "uint256"
        }
      ],
      "name": "NotifyCreateEscrow",
      "type": "event"
    },
    {
      "constant": false,
      "inputs": [
        {
          "name": "_escrow",
          "type": "address"
        },
        {
          "name": "_productId",
          "type": "uint256"
        }
      ],
      "name": "mapEscrowToProductId",
      "outputs": [],
      "payable": false,
      "stateMutability": "nonpayable",
      "type": "function"
    },
    {
      "constant": false,
      "inputs": [
        {
          "name": "_name",
          "type": "string"
        },
        {
          "name": "_category",
          "type": "string"
        },
        {
          "name": "_imageLink",
          "type": "string"
        },
        {
          "name": "_descLink",
          "type": "string"
        },
        {
          "name": "_price",
          "type": "uint256"
        },
        {
          "name": "_quantity",
          "type": "uint256"
        }
      ],
      "name": "addProduct",
      "outputs": [],
      "payable": false,
      "stateMutability": "nonpayable",
      "type": "function"
    },
    {
      "constant": false,
      "inputs": [
        {
          "name": "_productId",
          "type": "uint256"
        }
      ],
      "name": "buyProduct",
      "outputs": [],
      "payable": true,
      "stateMutability": "payable",
      "type": "function"
    },
    {
      "constant": false,
      "inputs": [
        {
          "name": "_addressOfEscrow",
          "type": "address"
        },
        {
          "name": "_productId",
          "type": "uint256"
        }
      ],
      "name": "mapEsrowToProduct",
      "outputs": [],
      "payable": false,
      "stateMutability": "nonpayable",
      "type": "function"
    },
    {
      "constant": false,
      "inputs": [
        {
          "name": "escrow",
          "type": "address"
        }
      ],
      "name": "transactionRejected",
      "outputs": [],
      "payable": false,
      "stateMutability": "nonpayable",
      "type": "function"
    },
    {
      "constant": true,
      "inputs": [
        {
          "name": "_productId",
          "type": "uint256"
        }
      ],
      "name": "getProductById",
      "outputs": [
        {
          "name": "id",
          "type": "uint256"
        },
        {
          "name": "productName",
          "type": "string"
        },
        {
          "name": "category",
          "type": "string"
        },
        {
          "name": "imageLink",
          "type": "string"
        },
        {
          "name": "descLink",
          "type": "string"
        },
        {
          "name": "price",
          "type": "uint256"
        },
        {
          "name": "status",
          "type": "uint8"
        },
        {
          "name": "quantity",
          "type": "uint256"
        }
      ],
      "payable": false,
      "stateMutability": "view",
      "type": "function"
    },
    {
      "constant": false,
      "inputs": [
        {
          "name": "_category",
          "type": "string"
        }
      ],
      "name": "getProductsWithCategory",
      "outputs": [
        {
          "name": "",
          "type": "uint256"
        }
      ],
      "payable": false,
      "stateMutability": "nonpayable",
      "type": "function"
    },
    {
      "constant": true,
      "inputs": [],
      "name": "getProductIndex",
      "outputs": [
        {
          "name": "",
          "type": "uint256"
        }
      ],
      "payable": false,
      "stateMutability": "view",
      "type": "function"
    }
  ],
  "bytecode": "0x6060604052341561000f57600080fd5b6000808190555061238e806100256000396000f3006060604052600436106100ba576000357c0100000000000000000000000000000000000000000000000000000000900463ffffffff16806310a7c8c7146100bf5780633f70c2b41461013057806354121c741461033a57806361655e12146105d757806382ea218a1461070f5780638642269e14610751578063954278d514610769578063a6d77f61146107b6578063bb6ad14c146107df578063c0bc03c814610818578063c897d5a61461087b578063e51eff08146108a4575b600080fd5b34156100ca57600080fd5b61011a600480803590602001908201803590602001908080601f016020809104026020016040519081016040528093929190818152602001838380828437820191505050505050919050506108e6565b6040518082815260200191505060405180910390f35b341561013b57600080fd5b610151600480803590602001909190505061101a565b604051808981526020018060200180602001806020018060200188815260200187600181111561017d57fe5b60ff16815260200186815260200185810385528c818151815260200191508051906020019080838360005b838110156101c35780820151818401526020810190506101a8565b50505050905090810190601f1680156101f05780820380516001836020036101000a031916815260200191505b5085810384528b818151815260200191508051906020019080838360005b8381101561022957808201518184015260208101905061020e565b50505050905090810190601f1680156102565780820380516001836020036101000a031916815260200191505b5085810383528a818151815260200191508051906020019080838360005b8381101561028f578082015181840152602081019050610274565b50505050905090810190601f1680156102bc5780820380516001836020036101000a031916815260200191505b50858103825289818151815260200191508051906020019080838360005b838110156102f55780820151818401526020810190506102da565b50505050905090810190601f1680156103225780820380516001836020036101000a031916815260200191505b509c5050505050505050505050505060405180910390f35b341561034557600080fd5b61037a600480803573ffffffffffffffffffffffffffffffffffffffff16906020019091908035906020019091905050611556565b60405180898152602001806020018060200180602001806020018881526020018760018111156103a657fe5b60ff16815260200186815260200185810385528c8181546001816001161561010002031660029004815260200191508054600181600116156101000203166002900480156104355780601f1061040a57610100808354040283529160200191610435565b820191906000526020600020905b81548152906001019060200180831161041857829003601f168201915b505085810384528b8181546001816001161561010002031660029004815260200191508054600181600116156101000203166002900480156104b85780601f1061048d576101008083540402835291602001916104b8565b820191906000526020600020905b81548152906001019060200180831161049b57829003601f168201915b505085810383528a81815460018160011615610100020316600290048152602001915080546001816001161561010002031660029004801561053b5780601f106105105761010080835404028352916020019161053b565b820191906000526020600020905b81548152906001019060200180831161051e57829003601f168201915b50508581038252898181546001816001161561010002031660029004815260200191508054600181600116156101000203166002900480156105be5780601f10610593576101008083540402835291602001916105be565b820191906000526020600020905b8154815290600101906020018083116105a157829003601f168201915b50509c5050505050505050505050505060405180910390f35b34156105e257600080fd5b61070d600480803590602001908201803590602001908080601f0160208091040260200160405190810160405280939291908181526020018383808284378201915050505050509190803590602001908201803590602001908080601f0160208091040260200160405190810160405280939291908181526020018383808284378201915050505050509190803590602001908201803590602001908080601f0160208091040260200160405190810160405280939291908181526020018383808284378201915050505050509190803590602001908201803590602001908080601f016020809104026020016040519081016040528093929190818152602001838380828437820191505050505050919080359060200190919080359060200190919050506115c3565b005b341561071a57600080fd5b61074f600480803573ffffffffffffffffffffffffffffffffffffffff169060200190919080359060200190919050506119e2565b005b6107676004808035906020019091905050611a2a565b005b341561077457600080fd5b6107a0600480803573ffffffffffffffffffffffffffffffffffffffff16906020019091905050611b16565b6040518082815260200191505060405180910390f35b34156107c157600080fd5b6107c9611b2e565b6040518082815260200191505060405180910390f35b34156107ea57600080fd5b610816600480803573ffffffffffffffffffffffffffffffffffffffff16906020019091905050611b37565b005b341561082357600080fd5b6108396004808035906020019091905050611bd8565b604051808273ffffffffffffffffffffffffffffffffffffffff1673ffffffffffffffffffffffffffffffffffffffff16815260200191505060405180910390f35b341561088657600080fd5b61088e611c0b565b6040518082815260200191505060405180910390f35b34156108af57600080fd5b6108e4600480803573ffffffffffffffffffffffffffffffffffffffff16906020019091908035906020019091905050611c11565b005b60008060008060006108f66120fb565b600094506000600480549050111561100d57600093505b60048054905084101561100c5760048481548110151561092957fe5b906000526020600020900160009054906101000a900473ffffffffffffffffffffffffffffffffffffffff169250600091505b600160008473ffffffffffffffffffffffffffffffffffffffff1673ffffffffffffffffffffffffffffffffffffffff16815260200190815260200160002080549050821015610fff57600160008473ffffffffffffffffffffffffffffffffffffffff1673ffffffffffffffffffffffffffffffffffffffff168152602001908152602001600020828154811015156109f257fe5b9060005260206000209060080201610100604051908101604052908160008201548152602001600182018054600181600116156101000203166002900480601f016020809104026020016040519081016040528092919081815260200182805460018160011615610100020316600290048015610ab05780601f10610a8557610100808354040283529160200191610ab0565b820191906000526020600020905b815481529060010190602001808311610a9357829003601f168201915b50505050508152602001600282018054600181600116156101000203166002900480601f016020809104026020016040519081016040528092919081815260200182805460018160011615610100020316600290048015610b525780601f10610b2757610100808354040283529160200191610b52565b820191906000526020600020905b815481529060010190602001808311610b3557829003601f168201915b50505050508152602001600382018054600181600116156101000203166002900480601f016020809104026020016040519081016040528092919081815260200182805460018160011615610100020316600290048015610bf45780601f10610bc957610100808354040283529160200191610bf4565b820191906000526020600020905b815481529060010190602001808311610bd757829003601f168201915b50505050508152602001600482018054600181600116156101000203166002900480601f016020809104026020016040519081016040528092919081815260200182805460018160011615610100020316600290048015610c965780601f10610c6b57610100808354040283529160200191610c96565b820191906000526020600020905b815481529060010190602001808311610c7957829003601f168201915b50505050508152602001600582015481526020016006820160009054906101000a900460ff166001811115610cc757fe5b6001811115610cd257fe5b81526020016007820154815250509050866040518082805190602001908083835b602083101515610d185780518252602082019150602081019050602083039250610cf3565b6001836020036101000a03801982511681845116808217855250505050505090500191505060405180910390206000191681604001516040518082805190602001908083835b602083101515610d835780518252602082019150602081019050602083039250610d5e565b6001836020036101000a0380198251168184511680821785525050505050509050019150506040518091039020600019161415610ff2577f4b4db96f602fdff7d400a04291e0f00601cf3298ae501a47663b41d652d272e1816000015182602001518360400151846060015185608001518660a001518760c001518860e001516040518089815260200180602001806020018060200180602001888152602001876001811115610e2f57fe5b60ff16815260200186815260200185810385528c818151815260200191508051906020019080838360005b83811015610e75578082015181840152602081019050610e5a565b50505050905090810190601f168015610ea25780820380516001836020036101000a031916815260200191505b5085810384528b818151815260200191508051906020019080838360005b83811015610edb578082015181840152602081019050610ec0565b50505050905090810190601f168015610f085780820380516001836020036101000a031916815260200191505b5085810383528a818151815260200191508051906020019080838360005b83811015610f41578082015181840152602081019050610f26565b50505050905090810190601f168015610f6e5780820380516001836020036101000a031916815260200191505b50858103825289818151815260200191508051906020019080838360005b83811015610fa7578082015181840152602081019050610f8c565b50505050905090810190601f168015610fd45780820380516001836020036101000a031916815260200191505b509c5050505050505050505050505060405180910390a16001850194505b818060010192505061095c565b838060010194505061090d565b5b8495505050505050919050565b6000611024612164565b61102c612164565b611034612164565b61103c612164565b600080600080600061104c6120fb565b6110546120fb565b600260008e815260200190815260200160002060009054906101000a900473ffffffffffffffffffffffffffffffffffffffff169350600092505b600160008573ffffffffffffffffffffffffffffffffffffffff1673ffffffffffffffffffffffffffffffffffffffff1681526020019081526020016000208054905083101561147757600160008573ffffffffffffffffffffffffffffffffffffffff1673ffffffffffffffffffffffffffffffffffffffff1681526020019081526020016000208381548110151561112557fe5b9060005260206000209060080201610100604051908101604052908160008201548152602001600182018054600181600116156101000203166002900480601f0160208091040260200160405190810160405280929190818152602001828054600181600116156101000203166002900480156111e35780601f106111b8576101008083540402835291602001916111e3565b820191906000526020600020905b8154815290600101906020018083116111c657829003601f168201915b50505050508152602001600282018054600181600116156101000203166002900480601f0160208091040260200160405190810160405280929190818152602001828054600181600116156101000203166002900480156112855780601f1061125a57610100808354040283529160200191611285565b820191906000526020600020905b81548152906001019060200180831161126857829003601f168201915b50505050508152602001600382018054600181600116156101000203166002900480601f0160208091040260200160405190810160405280929190818152602001828054600181600116156101000203166002900480156113275780601f106112fc57610100808354040283529160200191611327565b820191906000526020600020905b81548152906001019060200180831161130a57829003601f168201915b50505050508152602001600482018054600181600116156101000203166002900480601f0160208091040260200160405190810160405280929190818152602001828054600181600116156101000203166002900480156113c95780601f1061139e576101008083540402835291602001916113c9565b820191906000526020600020905b8154815290600101906020018083116113ac57829003601f168201915b50505050508152602001600582015481526020016006820160009054906101000a900460ff1660018111156113fa57fe5b600181111561140557fe5b815260200160078201548152505091508c8260000151141561146a57816000015182602001518360400151846060015185608001518660a001518760c001518860e001518696508595508494508393509b509b509b509b509b509b509b509b50611547565b828060010193505061108f565b610100604051908101604052806000815260200160206040519081016040528060008152508152602001602060405190810160405280600081525081526020016020604051908101604052806000815250815260200160206040519081016040528060008152508152602001600081526020016001808111156114f657fe5b815260200160008152509050806000015181602001518260400151836060015184608001518560a001518660c001518760e001518696508595508494508393509b509b509b509b509b509b509b509b505b50505050919395975091939597565b60016020528160005260406000208181548110151561157157fe5b90600052602060002090600802016000915091505080600001549080600101908060020190806003019080600401908060050154908060060160009054906101000a900460ff16908060070154905088565b6115cb6120fb565b6115d433611c59565b50600160008082825401925050819055506101006040519081016040528060005481526020018881526020018781526020018681526020018581526020018481526020016000600181111561162557fe5b8152602001838152509050600160003373ffffffffffffffffffffffffffffffffffffffff1673ffffffffffffffffffffffffffffffffffffffff16815260200190815260200160002080548060010182816116819190612178565b916000526020600020906008020160008390919091506000820151816000015560208201518160010190805190602001906116bd9291906121aa565b5060408201518160020190805190602001906116da9291906121aa565b5060608201518160030190805190602001906116f79291906121aa565b5060808201518160040190805190602001906117149291906121aa565b5060a0820151816005015560c08201518160060160006101000a81548160ff0219169083600181111561174357fe5b021790555060e0820151816007015550505033600260008054815260200190815260200160002060006101000a81548173ffffffffffffffffffffffffffffffffffffffff021916908373ffffffffffffffffffffffffffffffffffffffff1602179055507fccf923bda4039eeb615f5007087dddaa1f1e5f2c3116d9b1906df66f553f96e2816000015182602001518360400151846060015185608001518660a001518760c001518860e00151604051808981526020018060200180602001806020018060200188815260200187600181111561181d57fe5b60ff16815260200186815260200185810385528c818151815260200191508051906020019080838360005b83811015611863578082015181840152602081019050611848565b50505050905090810190601f1680156118905780820380516001836020036101000a031916815260200191505b5085810384528b818151815260200191508051906020019080838360005b838110156118c95780820151818401526020810190506118ae565b50505050905090810190601f1680156118f65780820380516001836020036101000a031916815260200191505b5085810383528a818151815260200191508051906020019080838360005b8381101561192f578082015181840152602081019050611914565b50505050905090810190601f16801561195c5780820380516001836020036101000a031916815260200191505b50858103825289818151815260200191508051906020019080838360005b8381101561199557808201518184015260208101905061197a565b50505050905090810190601f1680156119c25780820380516001836020036101000a031916815260200191505b509c5050505050505050505050505060405180910390a150505050505050565b80600360008473ffffffffffffffffffffffffffffffffffffffff1673ffffffffffffffffffffffffffffffffffffffff168152602001908152602001600020819055505050565b6000611a3582611ddf565b6002600083815260200190815260200160002060009054906101000a900473ffffffffffffffffffffffffffffffffffffffff1690507fba5a3d6ed0b962a9c28a54faed7a7a2000a0e083e1479f8f37a0b2ea9bce999633823485604051808573ffffffffffffffffffffffffffffffffffffffff1673ffffffffffffffffffffffffffffffffffffffff1681526020018473ffffffffffffffffffffffffffffffffffffffff1673ffffffffffffffffffffffffffffffffffffffff16815260200183815260200182815260200194505050505060405180910390a15050565b60036020528060005260406000206000915090505481565b60008054905090565b6000600360008373ffffffffffffffffffffffffffffffffffffffff1673ffffffffffffffffffffffffffffffffffffffff168152602001908152602001600020549050600081141515611b8f57611b8e81611ee5565b5b6000600360008473ffffffffffffffffffffffffffffffffffffffff1673ffffffffffffffffffffffffffffffffffffffff168152602001908152602001600020819055505050565b60026020528060005260406000206000915054906101000a900473ffffffffffffffffffffffffffffffffffffffff1681565b60005481565b80600360008473ffffffffffffffffffffffffffffffffffffffff1673ffffffffffffffffffffffffffffffffffffffff168152602001908152602001600020819055505050565b6000806000806004805490501415611cd75760048054806001018281611c7f919061222a565b9160005260206000209001600086909190916101000a81548173ffffffffffffffffffffffffffffffffffffffff021916908373ffffffffffffffffffffffffffffffffffffffff1602179055505060009250611dd8565b600091505b600480549050821015611d7057600482815481101515611cf857fe5b906000526020600020900160009054906101000a900473ffffffffffffffffffffffffffffffffffffffff1690508373ffffffffffffffffffffffffffffffffffffffff168173ffffffffffffffffffffffffffffffffffffffff161415611d635760019250611dd8565b8180600101925050611cdc565b60048054806001018281611d84919061222a565b9160005260206000209001600086909190916101000a81548173ffffffffffffffffffffffffffffffffffffffff021916908373ffffffffffffffffffffffffffffffffffffffff16021790555050600092505b5050919050565b6000611de9612164565b611df1612164565b611df9612164565b611e01612164565b6000806000611e0e6120fb565b611e178a61101a565b98509850985098509850985098509850610100604051908101604052808a8152602001898152602001888152602001878152602001868152602001858152602001846001811115611e6457fe5b815260200183815250905060018160e0018181510391508181525050611e9281600001518260e00151611feb565b7feb01fcd1e168291921003e2754879b50a3a954fc767fb7d1d392ed6bace4768081600001518260e00151604051808381526020018281526020019250505060405180910390a150505050505050505050565b6000611eef612164565b611ef7612164565b611eff612164565b611f07612164565b6000806000611f146120fb565b611f1d8a61101a565b98509850985098509850985098509850610100604051908101604052808a8152602001898152602001888152602001878152602001868152602001858152602001846001811115611f6a57fe5b815260200183815250905060018160e0018181510191508181525050611f9881600001518260e00151611feb565b7feb01fcd1e168291921003e2754879b50a3a954fc767fb7d1d392ed6bace4768081600001518260e00151604051808381526020018281526020019250505060405180910390a150505050505050505050565b60008060006002600086815260200190815260200160002060009054906101000a900473ffffffffffffffffffffffffffffffffffffffff169250600091505b600160008473ffffffffffffffffffffffffffffffffffffffff1673ffffffffffffffffffffffffffffffffffffffff168152602001908152602001600020805490508210156120f457600160008473ffffffffffffffffffffffffffffffffffffffff1673ffffffffffffffffffffffffffffffffffffffff168152602001908152602001600020828154811015156120c157fe5b9060005260206000209060080201905084816000015414156120e7578381600701819055505b818060010192505061202b565b5050505050565b6101006040519081016040528060008152602001612117612256565b8152602001612124612256565b8152602001612131612256565b815260200161213e612256565b8152602001600081526020016000600181111561215757fe5b8152602001600081525090565b602060405190810160405280600081525090565b8154818355818115116121a5576008028160080283600052602060002091820191016121a4919061226a565b5b505050565b828054600181600116156101000203166002900490600052602060002090601f016020900481019282601f106121eb57805160ff1916838001178555612219565b82800160010185558215612219579182015b828111156122185782518255916020019190600101906121fd565b5b50905061222691906122f5565b5090565b8154818355818115116122515781836000526020600020918201910161225091906122f5565b5b505050565b602060405190810160405280600081525090565b6122f291905b808211156122ee57600080820160009055600182016000612291919061231a565b6002820160006122a1919061231a565b6003820160006122b1919061231a565b6004820160006122c1919061231a565b60058201600090556006820160006101000a81549060ff0219169055600782016000905550600801612270565b5090565b90565b61231791905b808211156123135760008160009055506001016122fb565b5090565b90565b50805460018160011615610100020316600290046000825580601f10612340575061235f565b601f01602090049060005260206000209081019061235e91906122f5565b5b505600a165627a7a723058208dcef01ef9d21932019cede7b376534e3e05f4648b9c74d0f101064521d965ba0029",
  "source": "pragma solidity ^0.4.18;\n\ncontract Store {\n\n    // Declare Events: \n    event NotifyProduct(uint _id, string _name, string _category, string _imageLink, string _descLink, uint _price, ProductStatus _status, uint _quantity);\n    event NotifyNewProduct(uint _id, string _name, string _category, string _imageLink, string _descLink, uint _price, ProductStatus _status, uint _quantity);\n    event NotifyQuantityOfProduct(uint productId, uint quantity);\n    event NotifyCreateEscrow(address buyer, address seller, uint price, uint productId);\n    \n    // Declare Enum\n    enum ProductStatus {OPEN, CLOSE}\n\n    // Declare variables \n    uint public productIndex;\n\n    mapping(address => Product[]) public stores;\n    mapping(uint => address) public productIdInStore;\n    mapping(address => uint) public mappingEscrowWithProductId;\n\n    address[] sellers;\n\n    struct Product {\n        uint id;\n        string name;\n        string category;\n        string imageLink;\n        string descLink;\n        uint price;\n        ProductStatus status;\n        uint quantity;\n    }\n\n    function Store() public {\n        productIndex = 0;\n    }\n    function mapEscrowToProductId(address _escrow, uint _productId) public {\n        mappingEscrowWithProductId[_escrow] = _productId;\n    }\n\n    function addProduct(string _name, string _category, string _imageLink, string _descLink, uint _price, uint _quantity) public {\n        isSellerExisted(msg.sender);\n        productIndex += 1;\n        Product memory product = Product(productIndex, _name, _category, _imageLink, _descLink, _price, ProductStatus.OPEN, _quantity);\n        stores[msg.sender].push(product);\n        productIdInStore[productIndex] = msg.sender;\n        NotifyNewProduct(product.id, product.name, product.category, product.imageLink, product.descLink, product.price, product.status, product.quantity);\n    }\n\n    function buyProduct(uint _productId) payable public {\n        decreaseQuantityProduct(_productId);\n        // Create Escrow contract\n        address seller = productIdInStore[_productId];\n        NotifyCreateEscrow(msg.sender, seller, msg.value, _productId);\n    }\n\n    function mapEsrowToProduct(address _addressOfEscrow, uint _productId) public {\n        mappingEscrowWithProductId[_addressOfEscrow] = _productId;\n    }\n\n    function transactionRejected(address escrow) public {\n        uint productId = mappingEscrowWithProductId[escrow];\n        if(productId != 0) {\n            revertQuantityProduct(productId);\n        }\n        mappingEscrowWithProductId[escrow] = 0; // Remove Escrows\n    }\n\n    function getProductById(uint _productId) view public returns(uint id, string productName, string category, string imageLink, string descLink, uint price, ProductStatus status, uint quantity) {\n        address seller = productIdInStore[_productId];\n        for (uint i = 0 ; i < stores[seller].length; i++) {\n            Product memory product = stores[seller][i];\n            if (product.id == _productId) {\n                return(product.id, product.name, product.category, product.imageLink, product.descLink, product.price, product.status, product.quantity);\n            }\n        }\n\n        Product memory emptyProduct = Product(0, \"\", \"\", \"\", \"\", 0, ProductStatus.CLOSE, 0);\n        return(emptyProduct.id, emptyProduct.name, emptyProduct.category, emptyProduct.imageLink, emptyProduct.descLink, emptyProduct.price, emptyProduct.status, emptyProduct.quantity);\n    }\n\n    function getProductsWithCategory(string _category) public returns(uint) {\n        // TODO: If status is empty => set status is OPEN\n        uint count = 0;\n        if (sellers.length > 0) {\n            for (uint i = 0 ; i < sellers.length; i ++) {\n                address seller = sellers[i];\n                for (uint j = 0; j < stores[seller].length; j ++) {\n                    Product memory product = stores[seller][j];\n                    if (keccak256(product.category) == keccak256(_category)) {\n                        NotifyProduct(product.id, product.name, product.category, product.imageLink, product.descLink, product.price, product.status, product.quantity);\n                        count += 1;\n                    }\n                }\n            }\n        }\n        return count;\n    }\n\n\n    function updateProductQuantity(uint _productId, uint quantity) private {\n        address seller = productIdInStore[_productId];\n        for (uint i = 0 ; i < stores[seller].length; i++) {\n            Product storage product = stores[seller][i];\n            if (product.id == _productId) {\n                product.quantity = quantity;\n            }\n        }\n    }\n    \n    function decreaseQuantityProduct(uint _productId) private {\n        var (id, name, category, imageLink, descLink, price, status, quantity) = getProductById(_productId);\n        Product memory product = Product(id, name, category, imageLink, descLink, price, status, quantity);\n        product.quantity -= 1;\n        updateProductQuantity(product.id, product.quantity);\n        NotifyQuantityOfProduct(product.id, product.quantity);\n    }\n\n    function revertQuantityProduct(uint _productId) private {\n        var (id, name, category, imageLink, descLink, price, status, quantity) = getProductById(_productId);\n        Product memory product = Product(id, name, category, imageLink, descLink, price, status, quantity);\n        product.quantity += 1;\n        updateProductQuantity(product.id, product.quantity);\n        NotifyQuantityOfProduct(product.id, product.quantity);        \n    }\n\n    function getProductIndex() public view returns(uint) {\n        return productIndex;\n    }\n\n    function isSellerExisted(address _seller) private returns(bool) {\n        if (sellers.length == 0 ) {\n            sellers.push(_seller);\n            return false;\n        } else {\n            for (uint i = 0 ; i < sellers.length; i ++) {\n                address seller = sellers[i];\n                if (seller == _seller) {\n                    return true;\n                }\n            }\n            sellers.push(_seller);\n        }\n        return false;\n    }\n}",
  "sourcePath": "/Users/caothang/Desktop/CoderSchool/Week2/Assigments/contracts/Store.sol",
  "compiler": {
    "name": "solc",
    "version": "0.4.19+commit.c4cbbb05.Emscripten.clang"
  },
  "schemaVersion": "2.0.0",
  "updatedAt": "2018-03-25T17:36:18.180Z"
}